:1000000000000220B5020000DD020000DF02000057
:10001000E1020000E3020000E50200000000000031
:10002000000000000000000000000000E7020000E7
:10003000E902000000000000EB020000ED020000F9
:10004000EF020000EF020000EF020000EF020000EC
:10005000EF020000EF020000EF020000EF020000DC
:10006000EF020000EF020000EF020000EF020000CC
:10007000EF020000EF020000EF020000EF020000BC
:10008000EF020000EF020000EF020000EF020000AC
:10009000EF020000EF020000EF020000EF0200009C
:1000A000EF020000EF020000EF020000EF0200008C
:1000B000EF020000EF02000000000000000000005E
:1000C000EF020000EF020000EF020000EF0200006C
:1000D000EF020000EF020000EF020000EF0200005C
:1000E000EF0200000000000000000000000000001F
:1000F00000000000EF02000000000000EF0200001E
:1001000000000000000000000000000000000000EF
:1001100000000000000000000000000000000000DF
:1001200000000000000000000000000000000000CF
:1001300000000000000000000000000000000000BF
:1001400000000000000000000000000000000000AF
:10015000000000000000000000000000000000009F
:10016000000000000000000000000000000000008F
:10017000000000000000000000000000000000007F
:10018000000000000000000000000000000000006F
:10019000000000000000000000000000000000005F
:1001A000000000000000000000000000000000004F
:1001B000000000000000000000000000000000003F
:1001C000000000000000000000000000000000002F
:1001D000000000000000000000000000000000001F
:1001E000000000000000000000000000000000000F
:1001F00000000000000000000000000000000000FF
:1002000010B5054C237833B9044B13B10448AFF350
:1002100000800123237010BD70000020000000004A
:100220005C07000008B5034B1BB103490348AFF35B
:10023000008008BD00000000740000205C07000082
:10024000154B002B08BF134B9D46A3F5803A0021A8
:100250008B460F461348144A121A00F043FA0F4B0C
:10026000002B00D098470E4B002B00D09847002061
:10027000002104000D000D48002802D00C48AFF307
:10028000008000F00BFA2000290000F055F900F082
:10029000F1F900BF0000080000000220000000008B
:1002A00000000000700000208C0000200000000012
:1002B000000000000649074A074B9B1A03DD043B78
:1002C000C858D050FBDC00F055F8FFF7B9FF00002C
:1002D000680700000000002070000020FEE7FEE735
:1002E000FEE7FEE7FEE7FEE7FEE7FEE7FEE7FEE7E6
:1002F0001F2886BF00F01F00044A4FF0A0420123D0
:1003000003FA00F0C2F80805704700BF0003005070
:1003100038B51C20FFF7ECFF0B20FFF7E9FF1F208B
:10032000FFF7E6FF2520FFF7E3FF0B4C0B4D1E20E8
:10033000FFF7DEFF00220120135D1F2B86BF03F0B5
:100340001F0329464FF0A041013200FA03F3052AAA
:10035000C1F80C35F0D138BD100700000003005083
:10036000034B1868A0F10D0358425841704700BF75
:100370003001001008B5FFF7F3FF40B14FF08043A4
:100380000022C3F80C21C3F81021C3F83825FFF769
:10039000E7FF002846D04FF08052594BD2F80414A2
:1003A000C3F82015D2F80814C3F82415D2F80C1499
:1003B000C3F82815D2F81014C3F82C15D2F8141469
:1003C000C3F83015D2F81814C3F83415D2F81C1439
:1003D000C3F84015D2F82014C3F84415D2F82414F9
:1003E000C3F84815D2F82814C3F84C15D2F82C14C9
:1003F000C3F85015D2F83014C3F85415D2F8341499
:10040000C3F86015D2F83814C3F86415D2F83C1458
:10041000C3F86815D2F84014C3F86C15D2F8442418
:10042000C3F87025FFF79CFF48B14FF08043D3F825
:100430000024D10744BF6FF00102C3F80024314A01
:10044000D2F8883043F47003C2F88830BFF34F8F7E
:10045000BFF36F8F4FF01023D3F80C22D2071ED5B5
:10046000294B0122C3F80425D3F80024002AFBD02D
:100470004FF01022D2F80C3223F00103C2F80C32F4
:10048000214B1A46D3F800140029FBD00021C3F8F1
:100490000415D2F80034002BFBD000F03BF8D3F861
:1004A0000022002A03DBD3F80432002B23DA164B98
:1004B0000122C3F80425D3F80024002AFBD04FF012
:1004C00010221221C2F80012D3F80024002AFBD017
:1004D0004FF010231222C3F804220B4B1A46D3F814
:1004E00000140029FBD00021C3F80415D2F8003411
:1004F000002BFBD0D1E7054B054A1A6008BD00BFB1
:1005000000C0004000ED00E000E0014000000020DD
:100510000090D003BFF34F8F0549064BCA6802F421
:10052000E0621343CB60BFF34F8F00BFFDE700BF16
:1005300000ED00E00400FA052DE9F74F464B47486F
:100540001B68474D019300220324135C1F2B86BFB9
:1005500003F01F0329464FF0A04103F5E073013279
:10056000052A41F82340F0D13E483D4D0022814606
:100570000324135C1F2B86BF03F01F0329464FF093
:10058000A04103F5E0730132052A41F82340F0D180
:10059000FFF7BEFE4FF00008B8F1010F55DC324DF9
:1005A0006B1DB8F1000F08BF1D460FE0013892FB2C
:1005B000F1F20228FAD1019B93FBF2F292FBF1F5E2
:1005C00001FB1525294A05EB8505154432274FF017
:1005D000A04B2E4600244FF0010A19F80400FFF743
:1005E00087FE002132781D4BC1F1040C42FA0CF257
:1005F000585CD3072DD51F2886BF00F01F00184A6E
:100600004FF0A0420AFA00F0C2F80C0501310529AA
:10061000E8D144F62062013ADBF80415FBD101343D
:10062000FFF776FE052C06F10106D6D1013FD0D1A9
:100630000F4A4FF0A041013AD1F80405FBD108F16F
:100640000108B8F1050FA7D1A4E7404664220A21AA
:10065000AFE7FFF74DFED9E76C0000201F07000051
:1006600000030050100700001507000024070000D9
:10067000A086010008B5074B044613B10021AFF373
:100680000080054B1868836A03B19847204600F044
:1006900031F800BF000000005807000070B50D4E93
:1006A0000D4CA41BA4100025A54209D10B4E0C4CE7
:1006B00000F022F8A41BA4100025A54205D170BDAE
:1006C00056F8253098470135EEE756F8253098471B
:1006D0000135F2E76400002064000020640000207F
:1006E0006800002002440346934200D1704703F89B
:1006F000011BF9E7FEE700BFF8B500BFF8BC08BC76
:100700009E467047F8B500BFF8BC08BC9E467047CF
:1007100015160F18131ED01C901E1B1B000E111C4B
:100720000B1F251E0C9252524C048C84848E1C820A
:100730004C901E1EC244924C06CA525FE21FF01E2D
:10074000C13E02448ED12E1FE24488100ED12ED11C
:100750002E0ED12EC48800000400002000000000EE
:08076000E0FAFF7F0100000038
:100768000090D0030000000000000000000000001E
:100778000000000000000000000000000000000071
:100788000000000000000000000000000000000061
:100798000000000000000000000000000000000051
:1007A8000000000000000000000000000000000041
:1007B8000000000000000000000000000000000031
:0C07C800000000002502000001020000FB
:0407D40046000000DB
:04000003000002B542
:00000001FF
