:1000000000000220B5020000DD020000DF02000057
:10001000E1020000E3020000E50200000000000031
:10002000000000000000000000000000E7020000E7
:10003000E902000000000000EB020000ED020000F9
:10004000EF020000EF020000EF020000EF020000EC
:10005000EF020000EF020000EF020000EF020000DC
:10006000EF020000EF020000EF020000EF020000CC
:10007000EF020000EF020000EF020000EF020000BC
:10008000EF020000EF020000EF020000EF020000AC
:10009000EF020000EF020000EF020000EF0200009C
:1000A000EF020000EF020000EF020000EF0200008C
:1000B000EF020000EF02000000000000000000005E
:1000C000EF020000EF020000EF020000EF0200006C
:1000D000EF020000EF020000EF020000EF0200005C
:1000E000EF0200000000000000000000000000001F
:1000F00000000000EF02000000000000EF0200001E
:1001000000000000000000000000000000000000EF
:1001100000000000000000000000000000000000DF
:1001200000000000000000000000000000000000CF
:1001300000000000000000000000000000000000BF
:1001400000000000000000000000000000000000AF
:10015000000000000000000000000000000000009F
:10016000000000000000000000000000000000008F
:10017000000000000000000000000000000000007F
:10018000000000000000000000000000000000006F
:10019000000000000000000000000000000000005F
:1001A000000000000000000000000000000000004F
:1001B000000000000000000000000000000000003F
:1001C000000000000000000000000000000000002F
:1001D000000000000000000000000000000000001F
:1001E000000000000000000000000000000000000F
:1001F00000000000000000000000000000000000FF
:1002000010B5054C237833B9044B13B10448AFF350
:1002100000800123237010BD740000200000000046
:100220008007000008B5034B1BB103490348AFF337
:10023000008008BD0000000078000020800700005A
:10024000154B002B08BF134B9D46A3F5803A0021A8
:100250008B460F461348144A121A00F055FA0F4BFA
:10026000002B00D098470E4B002B00D09847002061
:10027000002104000D000D48002802D00C48AFF307
:10028000008000F01DFA2000290000F0FBF900F0CA
:1002900003FA00BF00000800000002200000000078
:1002A000000000007400002090000020000000000A
:1002B000000000000649074A074B9B1A03DD043B78
:1002C000C858D050FBDC00F035F8FFF7B9FF00004C
:1002D0008C0700000000002074000020FEE7FEE70D
:1002E000FEE7FEE7FEE7FEE7FEE7FEE7FEE7FEE7E6
:1002F000BFF34F8F0549064BCA6802F4E06213430F
:10030000CB60BFF34F8F00BFFDE700BF00ED00E003
:100310000400FA05054B1B680D2B01BF044B186840
:10032000B0FA80F0400918BF00207047300100107B
:100330003401001008B5FFF7EDFF40B14FF08043E6
:100340000022C3F80C21C3F81021C3F83825FFF7A9
:10035000E1FF002846D04FF08052594BD2F80414E8
:10036000C3F82015D2F80814C3F82415D2F80C14D9
:10037000C3F82815D2F81014C3F82C15D2F81414A9
:10038000C3F83015D2F81814C3F83415D2F81C1479
:10039000C3F84015D2F82014C3F84415D2F8241439
:1003A000C3F84815D2F82814C3F84C15D2F82C1409
:1003B000C3F85015D2F83014C3F85415D2F83414D9
:1003C000C3F86015D2F83814C3F86415D2F83C1499
:1003D000C3F86815D2F84014C3F86C15D2F8442459
:1003E000C3F87025FFF796FF48B14FF08043D3F86C
:1003F0000024D10744BF6FF00102C3F80024314A42
:10040000D2F8883043F47003C2F88830BFF34F8FBE
:10041000BFF36F8F4FF01023D3F80C22D2071ED5F5
:10042000294B0122C3F80425D3F80024002AFBD06D
:100430004FF01022D2F80C3223F00103C2F80C3234
:10044000214B1A46D3F800140029FBD00021C3F831
:100450000415D2F80034002BFBD0FFF749FFD3F886
:100460000022002A03DBD3F80432002B23DA164BD8
:100470000122C3F80425D3F80024002AFBD04FF052
:1004800010221221C2F80012D3F80024002AFBD057
:100490004FF010231222C3F804220B4B1A46D3F854
:1004A00000140029FBD00021C3F80415D2F8003451
:1004B000002BFBD0D1E7054B054A1A6008BD00BFF1
:1004C00000C0004000ED00E000E00140000000201E
:1004D0000090D0031F2886BF00F01F00044A4FF091
:1004E000A042012303FA00F0C2F80805704700BFDC
:1004F00000030050805CC1F104010841C04300F0DA
:100500000100704700234FF0A042834200DB704798
:10051000D2F804150133F8E738B51C20FFF7DAFFED
:100520000B20FFF7D7FF1F20FFF7D4FF2520FFF791
:10053000D1FF0B4C0B4D1E20FFF7CCFF00220120FA
:10054000135D1F2B86BF03F01F0329464FF0A04108
:10055000013200FA03F3052AC1F80C35F0D138BD99
:1005600075070000000300502DE9F84F80463E4813
:100570003E4D002282460324135C1F2B86BF03F0EE
:100580001F0329464FF0A04103F5E0730132052A0D
:1005900041F82340F0D13648344D00220324135C47
:1005A0001F2B86BF03F01F0329464FF0A04103F520
:1005B000E0730132052A41F82340F0D1FFF7ACFF88
:1005C0004FF001090025012D46DC2A4C2A4B002D55
:1005D00008BF1C460EE0013993FBF2F30229FAD161
:1005E00098FBF3F393FBF2F402FB1434234B04EB7C
:1005F00084041C44322700261D4B985DFFF76AFFD8
:100600004FF0000B3246594620461AF80B30FFF7E0
:1006100071FF28BB1F2B86BF03F01F03134A4FF047
:10062000A04209FA03F3C2F80C350BF1010BBBF140
:10063000050FE7D144F620600136FFF763FFFFF7AF
:100640006BFF052ED8D1013FD5D10D480135FFF7FD
:1006500059FF052DB7D1B5E7294664230A22BDE726
:100660001846FFF737FFE0E76B0700000003005074
:10067000750700003407000070070000390700000C
:10068000A086010008B5034B9888FFF76DFF002096
:1006900008BD00BF0400002008B5074B044613B195
:1006A0000021AFF30080054B1868836A03B19847B7
:1006B000204600F031F800BF000000007C07000079
:1006C00070B50D4E0D4CA41BA4100025A54209D1F8
:1006D0000B4E0C4C00F022F8A41BA4100025A542E0
:1006E00005D170BD56F8253098470135EEE756F82C
:1006F000253098470135F2E76C0000206C0000209F
:100700006C0000207000002002440346934200D198
:10071000704703F8011BF9E7FEE700BFF8B500BF1B
:10072000F8BC08BC9E467047F8B500BFF8BC08BCD2
:100730009E4670471ED01C901E0C9252524C048C48
:1007400084848E1C824C901E1EC244924C06CA5257
:100750005FE21FF01EC13E02448ED12E1FE244888C
:10076000100ED12ED12E0ED12EC4881C0B1F251E8B
:100770001B1B000E1115160F181300000C00002093
:040780000000000075
:08078400BCFAFF7F0100000038
:10078C000090D0035341455046000000000000008B
:10079C00000000000000000000000000000000004D
:1007AC00000000000000000000000000000000003D
:1007BC00000000000000000000000000000000002D
:1007CC00000000000000000000000000000000001D
:1007DC00000000000000000000000000000000000D
:1007EC0000000000000000000000000025020000D6
:0407FC0001020000F6
:04000003000002B542
:00000001FF
