:1000000000000220B5020000DD020000DF02000057
:10001000E1020000E3020000E50200000000000031
:10002000000000000000000000000000E7020000E7
:10003000E902000000000000EB020000ED020000F9
:10004000EF020000EF020000EF020000EF020000EC
:10005000EF020000EF020000EF020000EF020000DC
:10006000EF020000EF020000EF020000EF020000CC
:10007000EF020000EF020000EF020000EF020000BC
:10008000EF020000EF020000EF020000EF020000AC
:10009000EF020000EF020000EF020000EF0200009C
:1000A000EF020000EF020000EF020000EF0200008C
:1000B000EF020000EF02000000000000000000005E
:1000C000EF020000EF020000EF020000EF0200006C
:1000D000EF020000EF020000EF020000EF0200005C
:1000E000EF0200000000000000000000000000001F
:1000F00000000000EF02000000000000EF0200001E
:1001000000000000000000000000000000000000EF
:1001100000000000000000000000000000000000DF
:1001200000000000000000000000000000000000CF
:1001300000000000000000000000000000000000BF
:1001400000000000000000000000000000000000AF
:10015000000000000000000000000000000000009F
:10016000000000000000000000000000000000008F
:10017000000000000000000000000000000000007F
:10018000000000000000000000000000000000006F
:10019000000000000000000000000000000000005F
:1001A000000000000000000000000000000000004F
:1001B000000000000000000000000000000000003F
:1001C000000000000000000000000000000000002F
:1001D000000000000000000000000000000000001F
:1001E000000000000000000000000000000000000F
:1001F00000000000000000000000000000000000FF
:1002000010B5054C237833B9044B13B10448AFF350
:1002100000800123237010BD740000200000000046
:100220006007000008B5034B1BB103490348AFF357
:10023000008008BD0000000078000020600700007A
:10024000154B002B08BF134B9D46A3F5803A0021A8
:100250008B460F461348144A121A00F047FA0F4B08
:10026000002B00D098470E4B002B00D09847002061
:10027000002104000D000D48002802D00C48AFF307
:10028000008000F00FFA2000290000F0EDF900F0E6
:10029000F5F900BF00000800000002200000000087
:1002A000000000007400002090000020000000000A
:1002B000000000000649074A074B9B1A03DD043B78
:1002C000C858D050FBDC00F02FF8FFF7B9FF000052
:1002D0006C0700000000002074000020FEE7FEE72D
:1002E000FEE7FEE7FEE7FEE7FEE7FEE7FEE7FEE7E6
:1002F000BFF34F8F0549064BCA6802F4E06213430F
:10030000CB60BFF34F8F00BFFDE700BF00ED00E003
:100310000400FA05034B1868A0F10D035842584138
:10032000704700BF3001001008B5FFF7F3FF40B180
:100330004FF080430022C3F80C21C3F81021C3F80A
:100340003825FFF7E7FF002846D04FF08052594B81
:10035000D2F80414C3F82015D2F80814C3F82415F1
:10036000D2F80C14C3F82815D2F81014C3F82C15C1
:10037000D2F81414C3F83015D2F81814C3F8341591
:10038000D2F81C14C3F84015D2F82014C3F8441551
:10039000D2F82414C3F84815D2F82814C3F84C1521
:1003A000D2F82C14C3F85015D2F83014C3F85415F1
:1003B000D2F83414C3F86015D2F83814C3F86415B1
:1003C000D2F83C14C3F86815D2F84014C3F86C1581
:1003D000D2F84424C3F87025FFF79CFF48B14FF0D2
:1003E0008043D3F80024D10744BF6FF00102C3F863
:1003F0000024314AD2F8883043F47003C2F88830C0
:10040000BFF34F8FBFF36F8F4FF01023D3F80C2241
:10041000D2071ED5294B0122C3F80425D3F80024A6
:10042000002AFBD04FF01022D2F80C3223F0010347
:10043000C2F80C32214B1A46D3F800140029FBD025
:100440000021C3F80415D2F80034002BFBD0FFF7CD
:100450004FFFD3F80022002A03DBD3F80432002B2D
:1004600023DA164B0122C3F80425D3F80024002A0E
:10047000FBD04FF010221221C2F80012D3F8002452
:10048000002AFBD04FF010231222C3F804220B4B9A
:100490001A46D3F800140029FBD00021C3F8041534
:1004A000D2F80034002BFBD0D1E7054B054A1A6087
:1004B00008BD00BF00C0004000ED00E000E00140CA
:1004C000000000200090D0031F2886BF00F01F000E
:1004D000044A4FF0A042012303FA00F0C2F80805D5
:1004E000704700BF00030050805CC1F10401084167
:1004F000C04300F00100704700234FF0A042834248
:1005000000DB7047D2F804150133F8E738B51C203A
:10051000FFF7DAFF0B20FFF7D7FF1F20FFF7D4FF0D
:100520002520FFF7D1FF0B4C0B4D1E20FFF7CCFF12
:1005300000220120135D1F2B86BF03F01F032946F5
:100540004FF0A041013200FA03F3052AC1F80C353F
:10055000F0D138BD54070000000300502DE9F84FDA
:1005600080463B483B4D002282460324135C1F2BF0
:1005700086BF03F01F0329464FF0A04103F5E07347
:100580000132052A41F82340F0D13348314D002291
:100590000324135C1F2B86BF03F01F0329464FF073
:1005A000A04103F5E0730132052A41F82340F0D160
:1005B000FFF7ACFF4FF00109284C00263227002539
:1005C000254B585DFFF780FF4FF0000B2A46594638
:1005D00020461AF80B30FFF787FFA0BB1F2B86BF02
:1005E00003F01F031B4A4FF0A04209FA03F3C2F8BD
:1005F0000C350BF1010BBBF1050FE7D144F6206080
:100600000135FFF779FFFFF781FF052DD8D1013FB5
:10061000D5D113480136FFF76FFF042ECCD03146F9
:1006200064230A2202E0013993FBF2F30129FAD193
:1006300098FBF3F393FBF2F402FB1434094B04EB45
:1006400084041C44BAE71846FFF73EFFD1E700BF19
:100650004A07000000030050540700004F07000045
:1006600040420F001807000008B5034B9888FFF7B9
:1006700075FF002008BD00BF0400002008B5074B2F
:10068000044613B10021AFF30080054B1868836A5C
:1006900003B19847204600F031F800BF0000000089
:1006A0005C07000070B50D4E0D4CA41BA410002576
:1006B000A54209D10B4E0C4C00F022F8A41BA4104B
:1006C0000025A54205D170BD56F825309847013563
:1006D000EEE756F8253098470135F2E76C00002028
:1006E0006C0000206C0000207000002002440346D3
:1006F000934200D1704703F8011BF9E7FEE700BF02
:10070000F8B500BFF8BC08BC9E467047F8B500BFFE
:10071000F8BC08BC9E4670470C9252524C048C8424
:10072000848E1C824C901E1EC244924C06CA525F9C
:10073000E21FF01EC13E02448ED12E1FE2448810FB
:100740000ED12ED12E0ED12EC4881C0B1F251E1BA0
:100750001B000E1115160F18130000000C000020CE
:040760000000000095
:08076400DCFAFF7F0100000038
:10076C000090D003DEC0CEFA46000000000000006E
:10077C00000000000000000000000000000000006D
:10078C00000000000000000000000000000000005D
:10079C00000000000000000000000000000000004D
:1007AC00000000000000000000000000000000003D
:1007BC00000000000000000000000000000000002D
:1007CC0000000000000000000000000025020000F6
:0407DC000102000016
:04000003000002B542
:00000001FF
